{
  "_format": "hh-sol-artifact-1",
  "contractName": "CoinTransfer",
  "sourceName": "contracts/CoinTransfer.sol",
  "abi": [
    {
      "inputs": [
        {
          "internalType": "uint256",
          "name": "_time",
          "type": "uint256"
        }
      ],
      "stateMutability": "nonpayable",
      "type": "constructor"
    },
    {
      "anonymous": false,
      "inputs": [
        {
          "indexed": false,
          "internalType": "address",
          "name": "",
          "type": "address"
        },
        {
          "indexed": false,
          "internalType": "uint256",
          "name": "",
          "type": "uint256"
        }
      ],
      "name": "Received",
      "type": "event"
    },
    {
      "stateMutability": "payable",
      "type": "fallback"
    },
    {
      "inputs": [
        {
          "internalType": "address",
          "name": "",
          "type": "address"
        }
      ],
      "name": "balanceReceived",
      "outputs": [
        {
          "internalType": "uint256",
          "name": "",
          "type": "uint256"
        }
      ],
      "stateMutability": "view",
      "type": "function"
    },
    {
      "inputs": [],
      "name": "getUserBalance",
      "outputs": [
        {
          "internalType": "uint256",
          "name": "",
          "type": "uint256"
        }
      ],
      "stateMutability": "view",
      "type": "function"
    },
    {
      "stateMutability": "payable",
      "type": "receive"
    }
  ],
  "bytecode": "0x608060405234801561001057600080fd5b50604051610370380380610370833981810160405281019061003291906100bb565b8060008190555033600160006101000a81548173ffffffffffffffffffffffffffffffffffffffff021916908373ffffffffffffffffffffffffffffffffffffffff160217905550506100e8565b600080fd5b6000819050919050565b61009881610085565b81146100a357600080fd5b50565b6000815190506100b58161008f565b92915050565b6000602082840312156100d1576100d0610080565b5b60006100df848285016100a6565b91505092915050565b610279806100f76000396000f3fe60806040526004361061002d5760003560e01c8063b7013dc1146100a8578063d18a42e1146100d35761006d565b3661006d577f88a5966d370b9919b20f3e2c13ff65706f196a4e32cc2c12bf57088f8852587433346040516100639291906101a1565b60405180910390a1005b7f88a5966d370b9919b20f3e2c13ff65706f196a4e32cc2c12bf57088f88525874333460405161009e9291906101a1565b60405180910390a1005b3480156100b457600080fd5b506100bd610110565b6040516100ca91906101ca565b60405180910390f35b3480156100df57600080fd5b506100fa60048036038101906100f59190610216565b61012f565b60405161010791906101ca565b60405180910390f35b60003373ffffffffffffffffffffffffffffffffffffffff1631905090565b60026020528060005260406000206000915090505481565b600073ffffffffffffffffffffffffffffffffffffffff82169050919050565b600061017282610147565b9050919050565b61018281610167565b82525050565b6000819050919050565b61019b81610188565b82525050565b60006040820190506101b66000830185610179565b6101c36020830184610192565b9392505050565b60006020820190506101df6000830184610192565b92915050565b600080fd5b6101f381610167565b81146101fe57600080fd5b50565b600081359050610210816101ea565b92915050565b60006020828403121561022c5761022b6101e5565b5b600061023a84828501610201565b9150509291505056fea26469706673582212209044d6a49d8b51fc847a1c4a0c0b1f45251d0bc45b1e65fe1231a7b2bb5a84ff64736f6c63430008110033",
  "linkReferences": {},
  "deployedLinkReferences": {}
}